:020000040800F2
:100000002004002045010008250700084D060008CF
:1000100021070008F5030008F109000800000000AE
:10002000000000000000000000000000D3070008EE
:10003000F903000800000000D10700085D01000876
:100040005F0100085F0100085F0100085F01000810
:100050005F0100085F010008FD0300085F01000860
:100060005F0100082D040008610400085F0100081A
:100070005F0100085F0100085F0100085F010008E0
:100080005F0100085F0100085F0100085F010008D0
:100090005F0100085F0100085F0100085F010008C0
:1000A0005F0100085F0100085F0100085F010008B0
:1000B0005F0100085F0100085F0100085F010008A0
:1000C0005F0100085F0100085F0100085F01000890
:1000D0005F0100085F010008450900085F01000892
:1000E0005F0100085F0100085F0100085F01000870
:1000F0005F0100085F0100085F0100085F01000860
:100100005F0100085F0100085F0100085F0100084F
:100110005F0100085F0100085F0100085F0100083F
:100120005F0100085F0100085F0100085F0100082F
:10013000DFF80CD000F030F900480047A50B0008AC
:10014000200400200648804706480047FEE7FEE7F7
:10015000FEE7FEE7FEE7FEE7FEE7FEE7FEE7FEE777
:10016000E508000831010008F0B480EA0102D40F6C
:100170004200B2EB410F02D20246084611464A0045
:1001800042D0C30DDDB2C1F3C752AD1A202D35DA0E
:10019000C1F3160141F4000204B15242C5F1200638
:1001A00002FA06F12A411044B3EBD05F23D0C4B168
:1001B000012DA0EBC35009DCF0BC4FF0004202EA75
:1001C000C352DBB200F5000000F0B8B8400000F107
:1001D000807000EBC350A0F1807040EAD1704900FC
:1001E00009E0490841EAC071A0EBC35000F50000E6
:1001F000400800EBC350F0BC00F097B86142012208
:1002000002EB4101001BF6E7F0BC704781F00041B2
:10021000AAE780F00040A7E780EA010210B502F0EB
:100220000043400022D04A001FD0010E01EB1261B2
:10023000C0F35600C2F3560240F4000042F400023C
:10024000A0FB022000047F39140400D0401C50EAB7
:10025000124001D44000491EC2B20C0604EBD0107B
:10026000401C4008802A02D003E0002010BD20F08E
:100270000100002900DA0020184310BD30B480EAE4
:10028000010202F0004530F0004221F0004013D09E
:1002900090B1C30DD40DC2F31601C0F31600E41AD9
:1002A00041F4000140F400027D34914201D3641C0A
:1002B00000E04900002C02DA30BC002070474FF407
:1002C00000000023914201D3891A034340084FEAFA
:1002D0004101F7D151B1914202D14FF0004105E007
:1002E00002D24FF0010101E06FF0010103EBC450B5
:1002F000284430BC00F019B896230022114600F0C3
:100300001DB820F00040C10DC0F3160040F40000FD
:100310007F2901DA00207047962903DCC1F196019C
:10032000C84070479639884070470029A8BF704779
:10033000401C490008BF20F00100704710B4B0FA1B
:1003400080FC00FA0CF050EA010404BF10BC7047B6
:1003500049B1CCF1200421FA04F411FA0CF118BFD0
:10036000012121430843A3EB0C01CB1D4FEA00619F
:100370004FEA102042BF002010BC704700EBC35072
:1003800010440029A4BF10BC7047401C490008BF9E
:1003900020F0010010BC7047064C074D06E0E068F5
:1003A00040F0010394E8070098471034AC42F6D3BC
:1003B000FFF7C2FE140C0008340C00080A488069DC
:1003C00040F00800084988610848006820F00F00E4
:1003D000064908600846006840F0030008600020F5
:1003E000034908607047000000100240040C0140FF
:1003F000A081214200BFFEE77047000010B5322007
:1004000000F09EFB05480068012802D104A000F01E
:100410004DFB012000F03EF810BD0000000121421C
:1004200057414B455F5550210D00000010B50A2083
:1004300000F086FB0448006810B904A000F036FB09
:10044000082000F027F810BD0C0123424B4559311C
:100450002077617320707265737365640D0000000E
:1004600010B50A2000F06CFB0448006810B904A025
:1004700000F01CFB102000F00DF810BD100123420D
:100480004B455930207761732070726573736564D2
:100490000D0000000149086070470000140401408D
:1004A000002123498279002A3AD00A46126803685B
:1004B0009A430B461A600A1D126803689A430B1D83
:1004C0001A60027911440A6803681A430A60184ADC
:1004D0000832126803689A43154B08331A601A1DD4
:1004E000126803689A43124B0C331A604279102A3F
:1004F0000ED11A1F126803681A430D4B08331A6095
:100500001A1D126803681A43094B0C331A600DE078
:100510000749427911440A6803681A430A6005E0F2
:10052000027911440A6803689A430A607047000020
:10053000000401400EB500F08BF80120324908603C
:100540000021084600F062F80321042000F05EF864
:100550000421084600F05AF81020019000208DF880
:1005600008000C208DF8090001208DF80A0001A870
:10057000FFF796FF0A208DF8000002208DF8010099
:1005800000208DF8020001208DF80300684600F07D
:10059000DDF80820019000208DF808000C208DF86F
:1005A000090001208DF80A0001A8FFF779FF092052
:1005B0008DF8000002208DF8010001208DF8020066
:1005C0008DF80300684600F0C1F80120019000207A
:1005D0008DF8080008208DF8090001208DF80A0028
:1005E00001A8FFF75DFF06208DF8000000208DF8C0
:1005F000010002208DF8020001208DF803006846FA
:1006000000F0A4F80EBD00000003424230B5002205
:100610008B071C0F0F2303FA04F20B4B8C1053F8BB
:1006200024309343084C8D1044F8253023468C1019
:1006300053F824308C07240F00FA04F42343024CAF
:100640008D1044F8253030BD0800014000BFFEE7A2
:100650001448806940F004001249886108468069A6
:1006600040F0400088611048006820F00F000E49FB
:1006700008600846006840F0080008600B48006801
:1006800020F47F20094908600846006840F40820EB
:10069000086006480C30006840F0180003490C312F
:1006A0000860704700100240000801400018014037
:1006B0001848806940F0080016498861084680693A
:1006C00040F0400088611448006820F4700012492E
:1006D00008600846006840F4401008600E480C307E
:1006E000006840F020000C490C3108600B4800689D
:1006F00020F47000094908600846006840F4401082
:10070000086006480C30006840F0200003490C31B6
:100710000860704700100240000C014000180140C2
:1007200000BFFEE7704708B54FF4A06000F046F840
:1007300026208DF8000001208DF801008DF80200C0
:100740008DF80300684600F001F808BD70B500217F
:1007500000230F22C47804B3154C246804F4E06429
:10076000C4F5E064210AC1F10403CA40447804FAE4
:1007700003F184781440214309010E4C0678A155F9
:10078000047804F01F050124AC4005786D11AD001C
:1007900005F1E025C5F8004109E0047804F01F05E3
:1007A0000124AC40044D0678761145F8264070BD12
:1007B0000CED00E000E400E080E100E002490143CC
:1007C000024A1160704700000000FA050CED00E0DD
:1007D0007047704710B500F001F810BD0CB500204F
:1007E000019000903348006840F48030314908603F
:1007F00000BF3048006800F4003000900198401CB1
:100800000190009818B90198B0F5A06FF1D129486E
:10081000006800F4003010B10120009001E00020D9
:1008200000900098012843D12348006840F0100050
:10083000214908600846006820F003000860084667
:10084000006840F0020008601A4840681949486092
:100850000846406848600846406840F48060486048
:100860000846406820F47C1048600846406840F420
:10087000E81048600846006840F08070086000BFDB
:100880000C48006800F000700028F9D00948406862
:1008900020F00300074948600846406840F0020025
:1008A000486000BF0348406800F00C000828F9D1F8
:1008B0000CBD00000010024000200240042808D1B6
:1008C0004FF0E021096941F004014FF0E02211618D
:1008D00007E04FF0E021096921F004014FF0E02228
:1008E0001161704710B51348006840F001001149CC
:1008F000086008464068104908400E4948600846AC
:1009000000680E4908400B4908600846006820F45A
:10091000802008600846406820F4FE0048604FF4DC
:100920001F008860FFF756FF4FF000600449086021
:1009300010BD0000001002400000FFF8FFFFF6FEAF
:1009400008ED00E010B500BF174840690028FBD053
:1009500016480088C4B2012C02D0022C21D115E027
:100960001348006808B9012000E000201049086021
:100970001048D0F8940108B9012000E000200C498B
:100980000C3908600CA000F033F90AE00020084997
:10099000086001200749C1F894010FA000F028F970
:1009A00000BF00BF10BD00000080084204440040AA
:1009B000A0812142008021424C45445F726564263B
:1009C0004265657020737769746368206368616E3F
:1009D0006765640D000000004C45445F7265642645
:1009E00042656570207475726E206F66660D00003A
:1009F00000BFFEE72DE9F04704460025002701204F
:100A0000234908602349C1F808032348006820F4FB
:100A10007F40214908600846006840F4964008601D
:100A200001201E4908601E49C1F88C012001FFF712
:100A300063FC804641461B48FFF720FC06463046D3
:100A4000FFF75FFC85B22846FFF756FC8246314629
:100A5000FFF7DFFB81464FF08341FFF7DDFB804668
:100A6000FFF74FFC87B21048008847EA051108439A
:100A70000D490880FFF757FE012008490C31086036
:100A800007498C31086005492C310860BDE8F087C2
:100A9000C4034242000042420008014088810842EB
:100AA000008008424054094C08440040014A024971
:100AB00000F013B88D0B00081800002002E008C8F1
:100AC000121F08C1002AFAD170477047002001E0C8
:100AD00001C1121F002AFBD170472DE9F0411646D3
:100AE0000F460446002503E03946B047641C6D1CE0
:100AF00020780028F8D12846BDE8F08110B56FF0C5
:100B00000400FFF7DBFE0A4800680A49B0FBF1F079
:100B1000094908700846007800EB4001C1EBC0109D
:100B20004FF6FF7101EAC0000449088010BD0000C3
:100B30000000002000127A0014000020160000209F
:100B40000146114A12884A434FF0E0235A610022BD
:100B50009A611A46126942F001021A6100BF4FF011
:100B6000E022106900F001021AB100F48032002A7C
:100B7000F5D04FF0E022126922F001024FF0E0239D
:100B80001A6100229A6170471600002000BF034AD4
:100B90009269002AFBD0024B1880704700800842FF
:100BA000044400404FF41650FFF724FFFFF7C2FC47
:100BB000FFF704FCFFF7A2FFFFF77AFD08A0FFF79D
:100BC00075FF0BE00948006808B9012000E000202B
:100BD000064908604FF4FA70FFF7B2FFF2E7000031
:100BE00055704C696E6B204F4B210D0094012342D0
:100BF00010B5044601E0FFF7C9FF14F8010B0449E2
:100C00000028F8D1BDE810400A20FFF7BFBF000060
:100C100018000020340C0008000000201C00000018
:100C2000BC0A0008500C00081C000020040400004E
:100C3000CC0A000800A24A040000000000000000E6
:100C4000010203040607080900000000000000007C
:0400000508000131BD
:00000001FF
